{"abi":[{"type":"constructor","inputs":[{"name":"_addressProvider","type":"address","internalType":"address"}],"stateMutability":"nonpayable"},{"type":"receive","stateMutability":"payable"},{"type":"function","name":"ADDRESSES_PROVIDER","inputs":[],"outputs":[{"name":"","type":"address","internalType":"contract IPoolAddressesProvider"}],"stateMutability":"view"},{"type":"function","name":"POOL","inputs":[],"outputs":[{"name":"","type":"address","internalType":"contract IPool"}],"stateMutability":"view"},{"type":"function","name":"executeOperation","inputs":[{"name":"asset","type":"address","internalType":"address"},{"name":"amount","type":"uint256","internalType":"uint256"},{"name":"premium","type":"uint256","internalType":"uint256"},{"name":"initiator","type":"address","internalType":"address"},{"name":"params","type":"bytes","internalType":"bytes"}],"outputs":[{"name":"","type":"bool","internalType":"bool"}],"stateMutability":"nonpayable"},{"type":"function","name":"getBalance","inputs":[],"outputs":[{"name":"","type":"uint256","internalType":"uint256"}],"stateMutability":"view"},{"type":"function","name":"getTokenBalance","inputs":[{"name":"token","type":"address","internalType":"address"}],"outputs":[{"name":"","type":"uint256","internalType":"uint256"}],"stateMutability":"view"},{"type":"function","name":"requestFlashLoan","inputs":[{"name":"asset","type":"address","internalType":"address"},{"name":"amount","type":"uint256","internalType":"uint256"}],"outputs":[],"stateMutability":"nonpayable"},{"type":"function","name":"withdraw","inputs":[],"outputs":[],"stateMutability":"nonpayable"},{"type":"function","name":"withdrawToken","inputs":[{"name":"token","type":"address","internalType":"address"}],"outputs":[],"stateMutability":"nonpayable"},{"type":"event","name":"ContractBalance","inputs":[{"name":"ethBalance","type":"uint256","indexed":false,"internalType":"uint256"}],"anonymous":false},{"type":"event","name":"FlashLoanReceived","inputs":[{"name":"asset","type":"address","indexed":false,"internalType":"address"},{"name":"amount","type":"uint256","indexed":false,"internalType":"uint256"},{"name":"premium","type":"uint256","indexed":false,"internalType":"uint256"}],"anonymous":false},{"type":"event","name":"FlashLoanRepaid","inputs":[{"name":"asset","type":"address","indexed":false,"internalType":"address"},{"name":"amount","type":"uint256","indexed":false,"internalType":"uint256"},{"name":"premium","type":"uint256","indexed":false,"internalType":"uint256"}],"anonymous":false},{"type":"event","name":"FlashLoanRequested","inputs":[{"name":"asset","type":"address","indexed":false,"internalType":"address"},{"name":"amount","type":"uint256","indexed":false,"internalType":"uint256"}],"anonymous":false},{"type":"error","name":"FlashLoanFailed","inputs":[]},{"type":"error","name":"InsufficientBalance","inputs":[]},{"type":"error","name":"OnlyOwner","inputs":[]}],"bytecode":{"object":"0x60c060405234801561000f575f5ffd5b50604051611376380380611376833981810160405281019061003191906101a8565b8073ffffffffffffffffffffffffffffffffffffffff1660808173ffffffffffffffffffffffffffffffffffffffff16815250508073ffffffffffffffffffffffffffffffffffffffff1663026b1d5f6040518163ffffffff1660e01b8152600401602060405180830381865afa1580156100ae573d5f5f3e3d5ffd5b505050506040513d601f19601f820116820180604052508101906100d291906101a8565b73ffffffffffffffffffffffffffffffffffffffff1660a08173ffffffffffffffffffffffffffffffffffffffff1681525050335f5f6101000a81548173ffffffffffffffffffffffffffffffffffffffff021916908373ffffffffffffffffffffffffffffffffffffffff160217905550506101d3565b5f5ffd5b5f73ffffffffffffffffffffffffffffffffffffffff82169050919050565b5f6101778261014e565b9050919050565b6101878161016d565b8114610191575f5ffd5b50565b5f815190506101a28161017e565b92915050565b5f602082840312156101bd576101bc61014a565b5b5f6101ca84828501610194565b91505092915050565b60805160a05161116d6102095f395f818161024a0152818161050f015281816107830152610a3e01525f61021e015261116d5ff3fe60806040526004361061007e575f3560e01c80633ccfd60b1161004d5780633ccfd60b1461018c5780637535d246146101a257806389476069146101cc578063d54ba954146101f4576100bc565b80630542975c146100c057806312065fe0146100ea5780631b11d0ff146101145780633aecd0e314610150576100bc565b366100bc577f9eda563474dcf999b0332c34dedb9066a385693682ea01c43234fa4e95668a0e476040516100b29190610ae4565b60405180910390a1005b5f5ffd5b3480156100cb575f5ffd5b506100d461021c565b6040516100e19190610b77565b60405180910390f35b3480156100f5575f5ffd5b506100fe610240565b60405161010b9190610ae4565b60405180910390f35b34801561011f575f5ffd5b5061013a60048036038101906101359190610c5e565b610247565b6040516101479190610d0e565b60405180910390f35b34801561015b575f5ffd5b5061017660048036038101906101719190610d27565b6105d8565b6040516101839190610ae4565b60405180910390f35b348015610197575f5ffd5b506101a0610658565b005b3480156101ad575f5ffd5b506101b6610781565b6040516101c39190610d72565b60405180910390f35b3480156101d7575f5ffd5b506101f260048036038101906101ed9190610d27565b6107a5565b005b3480156101ff575f5ffd5b5061021a60048036038101906102159190610d8b565b61097e565b005b7f000000000000000000000000000000000000000000000000000000000000000081565b5f47905090565b5f7f000000000000000000000000000000000000000000000000000000000000000073ffffffffffffffffffffffffffffffffffffffff163373ffffffffffffffffffffffffffffffffffffffff16146102d6576040517f08c379a00000000000000000000000000000000000000000000000000000000081526004016102cd90610e23565b60405180910390fd5b3073ffffffffffffffffffffffffffffffffffffffff168473ffffffffffffffffffffffffffffffffffffffff1614610344576040517f08c379a000000000000000000000000000000000000000000000000000000000815260040161033b90610e8b565b60405180910390fd5b7f1343998c8d6022eb07eb12064b021c43c49447832d6f53815b05b4b8f43a9ced87878760405161037793929190610eb8565b60405180910390a15f8773ffffffffffffffffffffffffffffffffffffffff166370a08231306040518263ffffffff1660e01b81526004016103b99190610eed565b602060405180830381865afa1580156103d4573d5f5f3e3d5ffd5b505050506040513d601f19601f820116820180604052508101906103f89190610f1a565b90507f9eda563474dcf999b0332c34dedb9066a385693682ea01c43234fa4e95668a0e816040516104299190610ae4565b60405180910390a15f868861043e9190610f72565b9050808973ffffffffffffffffffffffffffffffffffffffff166370a08231306040518263ffffffff1660e01b815260040161047a9190610eed565b602060405180830381865afa158015610495573d5f5f3e3d5ffd5b505050506040513d601f19601f820116820180604052508101906104b99190610f1a565b10156104f1576040517ff4d678b800000000000000000000000000000000000000000000000000000000815260040160405180910390fd5b8873ffffffffffffffffffffffffffffffffffffffff1663095ea7b37f0000000000000000000000000000000000000000000000000000000000000000836040518363ffffffff1660e01b815260040161054c929190610fa5565b6020604051808303815f875af1158015610568573d5f5f3e3d5ffd5b505050506040513d601f19601f8201168201806040525081019061058c9190610ff6565b507fe9e1bf9a2bed49d068bc4b5c33a7e0db635eb124e1ba530284122db0f6adf5828989896040516105c093929190610eb8565b60405180910390a16001925050509695505050505050565b5f8173ffffffffffffffffffffffffffffffffffffffff166370a08231306040518263ffffffff1660e01b81526004016106129190610eed565b602060405180830381865afa15801561062d573d5f5f3e3d5ffd5b505050506040513d601f19601f820116820180604052508101906106519190610f1a565b9050919050565b5f5f9054906101000a900473ffffffffffffffffffffffffffffffffffffffff1673ffffffffffffffffffffffffffffffffffffffff163373ffffffffffffffffffffffffffffffffffffffff16146106dd576040517f5fc483c500000000000000000000000000000000000000000000000000000000815260040160405180910390fd5b5f4790505f810361071a576040517ff4d678b800000000000000000000000000000000000000000000000000000000815260040160405180910390fd5b5f5f9054906101000a900473ffffffffffffffffffffffffffffffffffffffff1673ffffffffffffffffffffffffffffffffffffffff166108fc8290811502906040515f60405180830381858888f1935050505015801561077d573d5f5f3e3d5ffd5b5050565b7f000000000000000000000000000000000000000000000000000000000000000081565b5f5f9054906101000a900473ffffffffffffffffffffffffffffffffffffffff1673ffffffffffffffffffffffffffffffffffffffff163373ffffffffffffffffffffffffffffffffffffffff161461082a576040517f5fc483c500000000000000000000000000000000000000000000000000000000815260040160405180910390fd5b5f8173ffffffffffffffffffffffffffffffffffffffff166370a08231306040518263ffffffff1660e01b81526004016108649190610eed565b602060405180830381865afa15801561087f573d5f5f3e3d5ffd5b505050506040513d601f19601f820116820180604052508101906108a39190610f1a565b90505f81036108de576040517ff4d678b800000000000000000000000000000000000000000000000000000000815260040160405180910390fd5b8173ffffffffffffffffffffffffffffffffffffffff1663a9059cbb5f5f9054906101000a900473ffffffffffffffffffffffffffffffffffffffff16836040518363ffffffff1660e01b8152600401610939929190611041565b6020604051808303815f875af1158015610955573d5f5f3e3d5ffd5b505050506040513d601f19601f820116820180604052508101906109799190610ff6565b505050565b5f5f9054906101000a900473ffffffffffffffffffffffffffffffffffffffff1673ffffffffffffffffffffffffffffffffffffffff163373ffffffffffffffffffffffffffffffffffffffff1614610a03576040517f5fc483c500000000000000000000000000000000000000000000000000000000815260040160405180910390fd5b7f36b2acb66143c7d81ece04083e3157526cab9360d579ecd6ed68c9e7481123f18282604051610a34929190610fa5565b60405180910390a17f000000000000000000000000000000000000000000000000000000000000000073ffffffffffffffffffffffffffffffffffffffff166342b0b77c3084845f6040518563ffffffff1660e01b8152600401610a9b94939291906110e1565b5f604051808303815f87803b158015610ab2575f5ffd5b505af1158015610ac4573d5f5f3e3d5ffd5b505050505050565b5f819050919050565b610ade81610acc565b82525050565b5f602082019050610af75f830184610ad5565b92915050565b5f73ffffffffffffffffffffffffffffffffffffffff82169050919050565b5f819050919050565b5f610b3f610b3a610b3584610afd565b610b1c565b610afd565b9050919050565b5f610b5082610b25565b9050919050565b5f610b6182610b46565b9050919050565b610b7181610b57565b82525050565b5f602082019050610b8a5f830184610b68565b92915050565b5f5ffd5b5f5ffd5b5f610ba282610afd565b9050919050565b610bb281610b98565b8114610bbc575f5ffd5b50565b5f81359050610bcd81610ba9565b92915050565b610bdc81610acc565b8114610be6575f5ffd5b50565b5f81359050610bf781610bd3565b92915050565b5f5ffd5b5f5ffd5b5f5ffd5b5f5f83601f840112610c1e57610c1d610bfd565b5b8235905067ffffffffffffffff811115610c3b57610c3a610c01565b5b602083019150836001820283011115610c5757610c56610c05565b5b9250929050565b5f5f5f5f5f5f60a08789031215610c7857610c77610b90565b5b5f610c8589828a01610bbf565b9650506020610c9689828a01610be9565b9550506040610ca789828a01610be9565b9450506060610cb889828a01610bbf565b935050608087013567ffffffffffffffff811115610cd957610cd8610b94565b5b610ce589828a01610c09565b92509250509295509295509295565b5f8115159050919050565b610d0881610cf4565b82525050565b5f602082019050610d215f830184610cff565b92915050565b5f60208284031215610d3c57610d3b610b90565b5b5f610d4984828501610bbf565b91505092915050565b5f610d5c82610b46565b9050919050565b610d6c81610d52565b82525050565b5f602082019050610d855f830184610d63565b92915050565b5f5f60408385031215610da157610da0610b90565b5b5f610dae85828601610bbf565b9250506020610dbf85828601610be9565b9150509250929050565b5f82825260208201905092915050565b7f43616c6c6572206973206e6f74204161766520506f6f6c0000000000000000005f82015250565b5f610e0d601783610dc9565b9150610e1882610dd9565b602082019050919050565b5f6020820190508181035f830152610e3a81610e01565b9050919050565b7f496e69746961746f72206973206e6f74207468697320636f6e747261637400005f82015250565b5f610e75601e83610dc9565b9150610e8082610e41565b602082019050919050565b5f6020820190508181035f830152610ea281610e69565b9050919050565b610eb281610b98565b82525050565b5f606082019050610ecb5f830186610ea9565b610ed86020830185610ad5565b610ee56040830184610ad5565b949350505050565b5f602082019050610f005f830184610ea9565b92915050565b5f81519050610f1481610bd3565b92915050565b5f60208284031215610f2f57610f2e610b90565b5b5f610f3c84828501610f06565b91505092915050565b7f4e487b71000000000000000000000000000000000000000000000000000000005f52601160045260245ffd5b5f610f7c82610acc565b9150610f8783610acc565b9250828201905080821115610f9f57610f9e610f45565b5b92915050565b5f604082019050610fb85f830185610ea9565b610fc56020830184610ad5565b9392505050565b610fd581610cf4565b8114610fdf575f5ffd5b50565b5f81519050610ff081610fcc565b92915050565b5f6020828403121561100b5761100a610b90565b5b5f61101884828501610fe2565b91505092915050565b5f61102b82610b46565b9050919050565b61103b81611021565b82525050565b5f6040820190506110545f830185611032565b6110616020830184610ad5565b9392505050565b5f82825260208201905092915050565b50565b5f6110865f83611068565b915061109182611078565b5f82019050919050565b5f819050919050565b5f61ffff82169050919050565b5f6110cb6110c66110c18461109b565b610b1c565b6110a4565b9050919050565b6110db816110b1565b82525050565b5f60a0820190506110f45f830187610ea9565b6111016020830186610ea9565b61110e6040830185610ad5565b818103606083015261111f8161107b565b905061112e60808301846110d2565b9594505050505056fea2646970667358221220958b14230f8175b3032ad2711a907afa8ecab3197c15c386abfc506fb72a7cb864736f6c634300081c0033","linkReferences":{}},"methodIdentifiers":{"ADDRESSES_PROVIDER()":"0542975c","POOL()":"7535d246","executeOperation(address,uint256,uint256,address,bytes)":"1b11d0ff","getBalance()":"12065fe0","getTokenBalance(address)":"3aecd0e3","requestFlashLoan(address,uint256)":"d54ba954","withdraw()":"3ccfd60b","withdrawToken(address)":"89476069"},"id":21}